:020000040800F2
:10000000000008205DCA00081DC600081FC60008C1
:1000100021C6000823C6000825C60008000000000D
:100020000000000000000000000000006142000825
:1000300027C60008000000000143000865430008CF
:10004000ADCA0008ADCA0008ADCA0008ADCA0008B4
:10005000ADCA0008ADCA0008ADCA0008ADCA0008A4
:10006000ADCA0008ADCA0008ADCA0008ADCA000894
:10007000ADCA0008ADCA0008ADCA0008ADCA000884
:10008000ADCA0008ADCA0008ADCA0008ADCA000874
:10009000ADCA0008ADCA0008ADCA0008ADCA000864
:1000A000ADCA000829C60008ADCA0008ADCA0008DC
:1000B000ADCA0008ADCA0008ADCA0008ADCA000844
:1000C000ADCA0008ADCA0008ADCA0008ADCA000834
:1000D000ADCA0008ADCA0008ADCA000839C600089C
:1000E00075C60008ADCA0008ADCA0008ADCA000850
:1000F000ADCA0008ADCA0008ADCA0008ADCA000804
:10010000ADCA0008ADCA0008ADCA0008ADCA0008F3
:10011000ADCA0008ADCA0008ADCA0008ADCA0008E3
:10012000ADCA0008ADCA0008ADCA0008ADCA0008D3
:10013000ADCA00088DC60008ADCA0008ADCA0008E7
:10014000ADCA0008ADCA0008ADCA0008ADCA0008B3
:10015000ADCA0008ADCA0008ADCA0008ADCA0008A3
:10016000ADCA0008ADCA0008ADCA0008ADCA000893
:10017000ADCA0008ADCA0008ADCA00080000000002
:10018000ADCA0008ADCA0008ADCA0008ADCA000873
:10019000ADCA0008ADCA0008ADCA0008ADCA000863
:1001A000ADCA0008ADCA0008ADCA0008ADCA000853
:1001B000ADCA0008ADCA0008ADCA0008ADCA000843
:1001C000ADCA0008ADCA000800000000ADCA0008B2
:1001D000ADCA0008ADCA0008ADCA0008ADCA000823
:1001E000ADCA0008ADCA0008ADCA0008ADCA000813
:0801F000ADCA0008ADCA000809
:1002000010B5054C237833B9044B13B10448AFF350
:1002100000800123237010BD7C000020000000003E
:100220006CDD000808B5034B1BB103490348AFF36D
:10023000008008BD00000000800000206CDD000888
:1002400010F8012B11F8013B012A28BF9A42F7D080
:10025000D01A7047034613F8012B002AFBD1181A55
:10026000013870470000000000000000000000009E
:1002700001F0FF01102A2BDB10F0070F08D010F857
:10028000013B013A8B422DD010F0070F42B3F6D15B
:10029000F0B441EA012141EA014122F007047FF074
:1002A00000070023F0E80256083C85EA010586EACB
:1002B000010685FA47F5A3FA87F586FA47F6A5FA07
:1002C00087F68EB9EED1F0BC01F0FF0102F0070213
:1002D00032B110F8013B013A83EA010313B1F8D1BE
:1002E0000020704701387047002D06BF354603389F
:1002F000073815F0010F07D1013015F4807F02BFD8
:10030000013015F4C03F0130F0BC0138704700BF28
:1003100053B94AB9002908BF00281CBF4FF0FF316C
:100320004FF0FF3000F072B9ADF1080C6DE904CE6A
:1003300000F006F8DDF804E0DDE9022304B07047C0
:100340002DE9F047089E04468846002B4BD18A428F
:10035000154667D9B2FA82F24AB1C2F1200701FA12
:1003600002F320FA07F7954047EA030894404FEA62
:10037000154E230CB8FBFEF71FFA85FC0EFB178801
:1003800043EA084307FB0CF1994209D9EB1807F13E
:10039000FF3080F01B81994240F21881023F2B44CC
:1003A0005B1AA4B2B3FBFEF00EFB103344EA034425
:1003B00000FB0CFCA44509D92C1900F1FF3380F097
:1003C0000781A44540F2048102382C4440EA0740EA
:1003D000A4EB0C0400271EB1D4400023C6E900435F
:1003E0003946BDE8F0878B4209D9002E00F0EB803A
:1003F0000027C6E9000138463946BDE8F087B3FA60
:1004000083F7002F47D18B4202D3824200F2FA8059
:10041000841A61EB030301209846002EE0D0C6E960
:100420000048DDE702B9FFDEB2FA82F2002A40F0AE
:100430008F80491B4FEA154E1FFA85F80127B1FB43
:10044000FEFC230C0EFB1C1143EA014308FB0CF1DC
:10045000994207D9EB180CF1FF3002D2994200F211
:10046000CD808446591AA3B2B1FBFEF00EFB1014E6
:1004700043EA044408FB00F8A04507D92C1900F111
:10048000FF3302D2A04500F2B6801846A4EB080460
:1004900040EA0C409FE7C7F1200CBB4022FA0CFE5B
:1004A0004EEA030E01FA07F420FA0CF521FA0CF3D8
:1004B0004FEA1E482543B3FBF8F92C0C08FB19330F
:1004C0001FFA8EFA44EA034309FB0AF49C4202FA3B
:1004D00007F200FA07F10BD91EEB030309F1FF3015
:1004E00080F087809C4240F28480A9F10209734425
:1004F0001B1BADB2B3FBF8F008FB103345EA034415
:1005000000FB0AFAA24508D91EEB040400F1FF33F0
:100510006BD2A24569D90238744440EA0940A0FB75
:100520000289A4EB0A044C45C2464B4654D351D031
:10053000002E69D0B1EB0A0564EB030404FA0CFC4D
:10054000FD40FC404CEA0505C6E90054002747E79A
:10055000C2F1200320FA03F7954001FA02F021FAD4
:1005600003F34FEA154E3843010CB3FBFEF71FFAB5
:1005700085F80EFB173341EA034107FB08F38B4272
:1005800004FA02F407D9691807F1FF3C2FD28B4215
:100590002DD9023F2944CB1A81B2B3FBFEF00EFBEA
:1005A000103341EA034100FB08F38B4207D9691875
:1005B00000F1FF3C17D28B4215D902382944C91AE1
:1005C00040EA07473BE73746304609E70746E7E694
:1005D0001846FBE64145ABD2B8EB020A69EB0E02C6
:1005E00001381346A4E76046E9E7184695E76746F1
:1005F000D1E781467CE702382C4447E7ACF1020C96
:100600002B442FE7384608E73746E9E6704700BF36
:1006100008B5032000F02EF800200BF0C3FF0BF00C
:1006200063FF002008BD0000034A1168034B1B78DC
:100630000B441360704700BF983F0020000000206B
:10064000014B1868704700BF983F002038B504463A
:10065000FFF7F6FF0546B4F1FF3F02D0044B1B78CD
:100660001C44FFF7EDFF401B8442FAD838BD00BFA1
:10067000000000200649CB6823F4E0631B041B0C38
:10068000000200F4E0600343024A1A43CA60704764
:1006900000ED00E00000FA0530B4144BDB68C3F352
:1006A0000223C3F10704042C28BF04241D1D062DBA
:1006B00013D9033B012505FA04F4013C214099407C
:1006C00005FA03F3013B13401943002807DB090136
:1006D000C9B2074B195430BC70470023EAE700F059
:1006E0000F000901C9B2034B1954F4E700ED00E013
:1006F00000E400E014ED00E0420900F01F000123D7
:1007000003FA00F0014B43F82200704700E100E0DB
:1007100090F83530DBB2022B03D0802343650120F3
:100720007047052380F835300268136823F0010311
:1007300013600020704700005079137943EA0023CA
:1007400007480B50D07893781B0443EA0063507835
:1007500043EA002312781343024A8B50704700BFCC
:100760004080024044800240016841F218028B58E8
:1007700043F400538B507047016841F218028B58C4
:1007800043F002038B50704770B59EB0044629B108
:100790004FF40063C3604FF480438360E369002B30
:1007A00068D14FF48063079321680B68374A1A4079
:1007B000A368E06803430798034343F400731343BB
:1007C0000B6023681D680120FFF740FF23681D6050
:1007D000236840225A6023685D680120FFF736FFD6
:1007E00023685D60236800259D602368DD602268C2
:1007F000936923F0BE031B041B0C43F08003936139
:1008000023689E690120FFF721FF23689E6123680A
:10081000DD612368DD690120FFF718FF2368DD61D2
:10082000216841F218054B59194A1A40194B1343D4
:100830004B5123685E590120FFF708FF23685E5182
:10084000236803F58053144A1A60236803F5805324
:100850001D680120FFF7FAFE236803F580531D6031
:10086000A369012B09D0626900212046FFF764FFCC
:100870001EB070BD0023079396E7216841F21C0269
:100880008858064B03438B50EDE700BF0F8120FFD4
:10089000233FDEF8040020028020C1024000010056
:1008A00010B582B00446002301930268136843F038
:1008B0000803136003681B6801930120FFF7C6FE5D
:1008C0002368019A1A6002B010BD10B582B00446C8
:1008D000002301930268136843F004031360036864
:1008E0001B6801930120FFF7B1FE2368019A1A608B
:1008F00002B010BD30B583B00546002301930268F5
:1009000041F21804135943F48013135103681B591F
:1009100001930120FFF79AFE2B68019A1A5103B048
:1009200030BDF0B490F84540012C31D0012480F85E
:100930004540022480F84440C162002401E0F9608F
:1009400001349C4217D265014F194FF480164E5165
:1009500040F2F45606FB0426BE60C6691EB94E5925
:1009600046F440064E515D1EAC42E8D2651C01EBD8
:100970004515FD60E4E7026841F21003D150012300
:1009800080F84430002380F845301846F0BC7047AA
:100990000220FBE7F0B490F84540012C2ED0012452
:1009A00080F84540022480F844408162002401E040
:1009B000E96001349C4214D266018D194FF0004762
:1009C0008F5144F2F4566E6040F2F45606FB042652
:1009D000AE605E1EB442EBD2661C01EB4616EE60C2
:1009E000E7E7026841F20C03D150012380F844305C
:1009F000002380F845301846F0BC70470220FBE722
:100A000090F84530012B00F08780012380F84530B5
:100A1000022380F8443099B1C36A1A68002A17DBB0
:100A200030B440F2F45291421AD93C4CA4FB012458
:100A3000A40A40F2F45202FB141292B1013410E005
:100A4000012380F84430002280F845201846704782
:100A5000122380F84430002380F84530012070478D
:100A60000124012C01D0002337E01A6842F04052E3
:100A70001A60C36AC1F30C015960C26A136843F07B
:100A800000431360C36ADB68C362036841F2140267
:100A90009A5812F0040F08D0042141F21402995020
:100AA0000268002141F20403D150012380F8443050
:100AB000002380F84530184630BC7047C56A2A6864
:100AC00042F080522A6011E0C56A2A6842F0004272
:100AD0002A60C26AD268C26201339C42D5D9C56A13
:100AE0002A6822F040522A60002BE7D0C26A40F206
:100AF000F4555560621E9342E6D1C56A2A6842F0F9
:100B000000522A60064A02FB041202F2F452C56A3D
:100B1000C2F30C026A60D7E7022070470BB002AC48
:100B20000CFAFFFF90F84530012B45D0012380F8E7
:100B30004530022380F8443000210AE0036301229B
:100B40008263DB68836204E0826B01328263DB686C
:100B50008362836A1A68002A26DB032924D80131BC
:100B60001A6802F44072B2F5007FE7D01A6812F4F6
:100B7000407FE9D04363826B01328263012A11D046
:100B80001A68C2F30D42043AC263026B92680264AF
:100B9000DB688362012380F84430002380F845300D
:100BA000184670470363EBE7012380F844300022C6
:100BB00080F84520184670470220704770477047FC
:100BC00010B50446036841F214029A5812F0400F1F
:100BD00011D141F214029B5813F0010F19D1226870
:100BE00041F214034FF48031D1502268D35813F4EA
:100BF000004F1BD110BD0BF051FA2268402141F289
:100C00001403D150012384F84430002384F8453084
:100C1000E5E7FFF7D3FF2168012341F214028B506F
:100C200084F84430002384F84530D8E72046FFF7A5
:100C3000C6FF22684FF4004141F21403D150012352
:100C400084F84430002384F84530D3E7F8B590F8B1
:100C50004430DBB2822B01D10220F8BD1646054696
:100C6000822380F844300268146904F01C04038A6B
:100C7000DB029BB21C43890101F4F8610C4344F090
:100C800001041461FFF7DCFC074614F0010F10D0DB
:100C9000FFF7D6FCC01BB0F5803F02D22B681C6961
:100CA000F3E7012385F84430002385F8453003201D
:100CB000F8BD2B685B699BB23360012385F8443033
:100CC0000020F8BD90F84430DBB2422B01D1022065
:100CD000704770B50546422380F8443000680469C7
:100CE00004F01C042B8ADB029BB21C43890101F433
:100CF000F8610C4344F0030492B242612B681C611A
:100D0000FFF79EFC064614F0010F10D0FFF798FC89
:100D1000801BB0F5803F02D22B681C69F3E70123EA
:100D200085F84430002385F84530032070BD012349
:100D300085F84430002070BD70B582B00023019367
:100D4000002800F00C81044690F84430002B32D08B
:100D5000844B5A6C42F480425A645B6C03F48043C7
:100D60000093009B804B5A6822F400025A605A6834
:100D7000216A0A435A60236803F580531A6842F0D7
:100D800001021A60FFF75CFC0546236803F58052F8
:100D9000126812F0010F13D0FFF752FC401BB0F5A0
:100DA000FA7FF2D9032584F84450002384F84530B3
:100DB000284602B070BD80F845300BF009F9C7E74E
:100DC0001D6925F01C0500F05DFD684B0344684A71
:100DD000934255D845F0080523681D614FF4004241
:100DE00000212046FFF76EFF0546002860D1FF2056
:100DF000FFF72CFC6368002B00F09180FFF720FCCC
:100E0000064601AA01212046FFF720FFFFF718FC44
:100E1000801B41F28833984252D8019B13F0040F93
:100E2000EFD04FF4805200212046FFF74BFF0028FF
:100E300052D1FFF705FC064601AA01212046FFF723
:100E400005FFFFF7FDFB801B41F2883398424BD82A
:100E5000019B13F0200FEFD001AA10212046FFF7CD
:100E6000F5FE00284CD1019B13F0040F50D04FF435
:100E70000062E26013F0020F4DD00023A3605EE039
:100E80003C4B03443C4A934202D845F00C05A3E78F
:100E90003A4B03443A4A93429ED93A4B03443A4A66
:100EA000934202D845F0040596E745F0100593E714
:100EB00001212046FFF768FC012584F8445077E7BC
:100EC00001212046FFF760FC012384F84430002311
:100ED00084F8453003256BE701212046FFF754FCD9
:100EE000012584F8445063E701212046FFF74CFCBC
:100EF000012384F84430002384F84530032557E764
:100F000001212046FFF740FC012584F844504FE7BB
:100F10000022E260AEE74FF48043A3600FE0E36895
:100F2000C3F3CF02A368C3F34F031A430021204643
:100F3000FFF7C8FE58B940F6FF70FFF787FB0021A6
:100F40002046FFF721FC012384F8443030E70121DB
:100F50002046FFF719FC012584F8445028E70125B5
:100F600026E700BF003802400038014000D3CEFE23
:100F7000BFE1E40040F1E9FD3F787D0100796CFCC0
:100F8000FF596202001F0AFA7FF0FA0238B590F8A2
:100F90004530012B01D1022038BD0446012580F8DF
:100FA0004550022380F84430FFF77AFC2046FFF7D3
:100FB0008CFC2046FFF79EFC2046FFF7D5FB204621
:100FC000FFF7DAFB84F84450002084F8450038BD70
:100FD000F0B583B0002437E0092600E0002606FAC9
:100FE0000EF6324302336C4E46F823206B4B1A68E0
:100FF000EB4302EA03064F6817F4803F01D045EA4D
:101000000206664A1660526803EA02064F6817F441
:10101000003F01D045EA0206604A5660926803EA42
:1010200002064F6817F4801F01D045EA02065B4AAA
:101030009660D26813404E6816F4001F01D045EA4E
:101040000203564AD36001340F2C00F2A38001231F
:10105000A3400A6803EA0205AB42F4D14A68122AA7
:1010600018BF022A12D14FEAD40E0EF1080E50F822
:101070002E2004F00706B6000F27B74022EA070229
:101080000F6907FA06F6324340F82E2006684FEA49
:10109000440E032202FA0EF2D24316404F6807F0C4
:1010A000030707FA0EF73E4306604E68771E112EBF
:1010B00018BF012F01D9122E0FD186681640CF68B4
:1010C00007FA0EF73E438660466826EA03034E6839
:1010D000C6F30016A64033434360C3681A408B68CA
:1010E00003FA0EF31A43C2604B6813F0805FAAD074
:1010F0002B4B5A6C42F480425A645B6C03F480437D
:101100000193019BA3089E1C234A52F8262004F059
:1011100003064FEA860E0F2606FA0EF622EA0602AC
:10112000204FB8423FF45AAF1F4EB04222D006F5CE
:101130008066B04220D006F58066B0421ED006F52B
:101140008066B0421CD006F58066B0421AD006F523
:101150008066B04218D006F58066B04216D006F51B
:101160008066B04214D006F58066B0423FF434AFDA
:101170000A2634E7012632E7022630E703262EE767
:1011800004262CE705262AE7062628E7072626E771
:10119000082624E703B0F0BD00380140003C0140C0
:1011A0000038024000000240000402400369194276
:1011B00001D1002070470120704712B909048161F4
:1011C000704781617047436959404161704770477A
:1011D00008B5054B5B69034200D108BD024B58615D
:1011E000FFF7F5FFF9E700BF003C0140024A136832
:1011F00043F48073136070470070004010B582B0F4
:101200001B4B1A6C42F080521A641B6C03F0805323
:101210000193019B174A136843F480331360FFF76F
:101220000FFA0446134B5B6813F4803F08D1FFF7B5
:1012300007FA001BB0F57A7FF4D9032002B010BD85
:101240000C4A136843F400331360FFF7F9F90446BE
:10125000084B5B6813F4003F07D1FFF7F1F9001B5F
:10126000B0F57A7FF4D90320E8E70020E6E700BF75
:101270000038024000700040002800F0DC8170B5AA
:1012800082B00446036813F0010F3AD0A24B9B686A
:1012900003F00C03042B2BD09F4B9B6803F00C0333
:1012A000082B20D06368B3F5803F50D0002B54D179
:1012B000994B1A6822F480321A601A6822F480224C
:1012C0001A606368002B5FD0FFF7BAF90546924BAE
:1012D0001B6813F4003F14D1FFF7B2F9401B6428D8
:1012E000F5D90320ACE18C4B5B6813F4800FD9D0A7
:1012F000894B1B6813F4003F03D06368002B00F098
:101300009C81236813F0020F64D0834B9B6813F019
:101310000C0F4DD0804B9B6803F00C03082B42D080
:10132000E368002B79D07C4A136843F00103136013
:10133000FFF786F90546784B1B6813F0020F63D15F
:10134000FFF77EF9401B0228F5D9032078E1724AA5
:10135000136843F480331360B3E7B3F5A02F09D0CB
:101360006D4B1A6822F480321A601A6822F48022C7
:101370001A60A6E7684B1A6842F480221A601A685D
:1013800042F480321A609CE7FFF75AF90546624B37
:101390001B6813F4003FB4D0FFF752F9401B6428D8
:1013A000F5D903204CE15C4B5B6813F4800FB7D197
:1013B000594B1B6813F0020F04D0E368012B01D0D6
:1013C00001203DE1544A136823F0F803216943EA00
:1013D000C1031360236813F0080F46D0636983B319
:1013E0004D4A536F43F001035367FFF729F9054650
:1013F000494B5B6F13F0020F37D1FFF721F9401B08
:101400000228F5D903201BE1434A136823F0F803AF
:10141000216943EAC1031360DCE73F4A136823F004
:1014200001031360FFF70CF905463B4B1B6813F0F3
:10143000020FCFD0FFF704F9401B0228F5D9032093
:10144000FEE0354A536F23F001035367FFF7F8F8C6
:101450000546314B5B6F13F0020F06D0FFF7F0F833
:10146000401B0228F5D90320EAE0236813F0040F9B
:101470007ED0294B1B6C13F0805F31D1264B1A6C48
:1014800042F080521A641B6C03F080530193019B5D
:101490000125224B1B6813F4807F23D0A368012B06
:1014A00034D0002B3CD11C4B1A6F22F001021A677A
:1014B0001A6F22F004021A67A368002B46D0FFF7C8
:1014C000BFF80646144B1B6F13F0020F4FD1FFF706
:1014D000B7F8801B41F288339842F3D90320AFE07C
:1014E0000025D6E70D4A136843F480731360FFF7B5
:1014F000A7F80646094B1B6813F4807FCED1FFF78F
:101500009FF8801B6428F5D9032099E0024A136FE5
:1015100043F001031367CFE700380240007000403A
:10152000052B09D0484B1A6F22F001021A671A6F77
:1015300022F004021A67BFE7434B1A6F42F004021D
:101540001A671A6F42F001021A67B5E7FFF778F8D9
:1015500006463D4B1B6F13F0020F08D0FFF770F8E3
:10156000801B41F288339842F3D9032068E0F5B933
:10157000A369002B63D0344A926802F00C02082A57
:1015800060D0022B19D0304A136823F080731360A7
:10159000FFF756F804462C4B1B6813F0007F48D029
:1015A000FFF74EF8001B0228F5D9032048E0264A31
:1015B000136C23F080531364DAE7234A136823F093
:1015C00080731360FFF73CF805461F4B1B6813F050
:1015D000007F06D0FFF734F8401B0228F5D903201E
:1015E0002EE0E369226A1343626A43EA8213A26A25
:1015F0005208013A43EA0243E26A43EA0263226B79
:1016000043EA0273104A5360136843F08073136017
:10161000FFF716F804460C4B1B6813F0007F06D149
:10162000FFF70EF8001B0228F5D9032008E0002080
:1016300006E0002004E001207047012000E00020C7
:1016400002B070BD0120FBE700380240F8B5314B15
:101650009B6803F00C03042B59D0082B01D02E48B3
:10166000F8BD2C4B5A6802F03F025B6813F4800F00
:101670002AD0284B5B68C3F388131E4600275C0101
:101680000025E41A65EB0705A90141EA9461A00170
:10169000001B61EB0501CB0043EA5073C400A019A5
:1016A00043EB07014B0243EAD0534402204619465C
:1016B0000023FEF72DFE174B5B68C3F30143013394
:1016C0005B00B0FBF3F0F8BD124B5B68C3F388130B
:1016D0001E4600275C010025E41A65EB0705A901F9
:1016E00041EA9461A001001B61EB0501CB0043EAD4
:1016F0005073C400A01943EB07018B0243EA9053D7
:101700008402204619460023FEF702FED3E7034871
:10171000F8BD00BF003802400024F40000127A0037
:10172000002800F0A28070B50446524B1B6803F0FD
:101730000F038B420CD24F4A136823F00F030B4365
:101740001360136803F00F03994201D0012070BDAC
:10175000236813F0020F17D013F0040F04D0464A89
:10176000936843F4E0539360236813F0080F04D0A8
:10177000414A936843F4604393603F4A936823F07F
:10178000F003A068034393600D46236813F0010F34
:1017900031D06368012B20D0022B25D0364A126845
:1017A00012F0020F63D034498A6822F00302134317
:1017B0008B60FEF745FF06462F4B9B6803F00C033A
:1017C0006268B3EB820F16D0FEF73AFF801B41F23E
:1017D00088339842F0D9032070BD274A126812F46A
:1017E000003FE0D1012070BD234A126812F0007F53
:1017F000D9D1012070BD1F4B1B6803F00F039D4220
:101800000CD21C4A136823F00F032B431360136898
:1018100003F00F039D4201D0012070BD236813F037
:10182000040F06D0144A936823F4E053E1680B4395
:101830009360236813F0080F07D00F4A936823F4CE
:101840006043216943EAC1039360FFF7FFFE0A4B3F
:101850009B68C3F30313094AD35CD840084B186054
:1018600000200AF09FFE002070BD0120704701207B
:1018700070BD00BF003C02400038024038FA00084A
:1018800010000020014B1868704700BF10000020B6
:1018900008B5FFF7F7FF044B9B68C3F38223034AA5
:1018A000D35CD84008BD00BF0038024048FA0008A9
:1018B00008B5FFF7E7FF044B9B68C3F34233034AC5
:1018C000D35CD84008BD00BF0038024048FA000889
:1018D0000F2303600B4B9A6802F0030242609A6880
:1018E00002F0F00282609A6802F4E052C2609B68E3
:1018F000DB0803F4E0530361034B1B6803F00F03A1
:101900000B60704700380240003C0240F0B583B0E5
:101910000446036813F0010F0CD0B54B9A6822F40B
:1019200000029A609A68416B0A439A60436BC3B1A4
:10193000002700E00027236813F4002F15D0AC4ADD
:10194000D2F88C3023F44013E16B0B43C2F88C3097
:10195000E36BB3F5801F06D0002B00F04581002516
:1019600004E00127E7E70127F6E70025236813F4E1
:10197000801F0FD09E4AD2F88C3023F44003216C94
:101980000B43C2F88C30236CB3F5800F00F02E812E
:1019900003B90125236813F0807F00D0012713F0DD
:1019A000200F40F02781236813F0100F0CD0904BCC
:1019B000D3F88C2022F08072C3F88C20D3F88C20CE
:1019C000A16B0A43C3F88C20236813F4804F08D01E
:1019D000874AD2F8903023F44033616E0B43C2F84B
:1019E0009030236813F4004F08D0814AD2F8903029
:1019F00023F44023A16E0B43C2F89030236813F404
:101A0000803F08D07A4AD2F8903023F44013E16E38
:101A10000B43C2F89030236813F4003F08D0744A97
:101A2000D2F8903023F44003216F0B43C2F890307A
:101A3000236813F0400F08D06D4AD2F8903023F09D
:101A40000303616C0B43C2F89030236813F0800FDE
:101A500008D0674AD2F8903023F00C03A16C0B43F6
:101A6000C2F89030236813F4807F08D0604AD2F81F
:101A7000903023F03003E16C0B43C2F890302368C0
:101A800013F4007F08D05A4AD2F8903023F0C003F4
:101A9000216D0B43C2F89030236813F4806F08D097
:101AA000534AD2F8903023F44073616D0B43C2F86F
:101AB0009030236813F4006F08D04D4AD2F890306C
:101AC00023F44063A16D0B43C2F89030236813F4F4
:101AD000805F08D0464AD2F8903023F44053E16D3D
:101AE0000B43C2F89030236813F4005F08D0404ADB
:101AF000D2F8903023F44043216E0B43C2F890306B
:101B0000236813F4800F08D0394AD2F8903023F0BC
:101B10008063A16F0B43C2F89030236813F4001F59
:101B20000DD0334AD2F8903023F00063E16F0B43BD
:101B3000C2F89030E36FB3F1006F00F0C18023680A
:101B400013F0080F00D0012513F4802F08D0284A85
:101B5000D2F8903023F04073616F0B43C2F890309D
:101B6000236813F4000F09D0214AD2F8903023F0F3
:101B70008053D4F880100B43C2F89030236813F0E0
:101B8000806F09D01A4AD2F8903023F00053D4F86D
:101B900084100B43C2F89030236813F0006F09D013
:101BA000134AD2F88C3023F00073D4F888100B431A
:101BB000C2F88C30236813F0805F09D00C4AD2F849
:101BC0008C3023F08063D4F88C100B43C2F88C3037
:101BD000002F77D12368B3F1007F73D0002D40F040
:101BE0000581002003B0F0BD0125BFE60127CFE647
:101BF00000380240B84B1A6C42F080521A641B6CD9
:101C000003F080530193019BB44A136843F480733B
:101C10001360FEF715FD0646B04B1B6813F4807F7A
:101C200006D1FEF70DFD801B6428F5D90320D9E706
:101C3000A94B1B6F13F4407315D0226B02F4407252
:101C4000934210D0A44B1A6F22F44072196F41F4E2
:101C500080311967196F21F4803119671A671B6F7A
:101C600013F0010F12D1236B03F44072B2F5407FE1
:101C70001DD0994A936823F4F813936096490B6F2B
:101C8000226BC2F30B0213430B678CE6FEF7D8FC02
:101C90000646914B1B6F13F0020FE4D1FEF7D0FC08
:101CA000801B41F288339842F3D903209AE78A488F
:101CB000826822F4F8128A4919400A438260DDE7FB
:101CC00001253CE7844A136823F080631360FEF724
:101CD000B7FC0646804B1B6813F0006F06D0FEF77A
:101CE000AFFC801B6428F5D903207BE7236813F041
:101CF000010F13D0636B8BB9774AD2F88430D2F8D6
:101D00008410606803F4403343EA801301F070618B
:101D10000B43A16843EA0173C2F88430236813F4CB
:101D2000002F03D0E26BB2F5801F43D013F4801F65
:101D300003D0236CB3F5800F3CD0236813F0807F71
:101D400011D0654AD2F88400D2F8841066682369FD
:101D50001B0443EA861300F07060034301F0E04186
:101D60000B43C2F88430236813F0007F0DD0626803
:101D700023691B0443EA8213E26843EA0263A26810
:101D800043EA0273544AC2F88430534A136843F05A
:101D900080631360FEF754FC06464F4B1B6813F03C
:101DA000006F7FF41BAFFEF74BFC801B6428F4D957
:101DB000032017E7484AD2F88430D2F884106068CC
:101DC00003F4403343EA8013E06843EA006301F020
:101DD000E0410B43C2F88430D2F88C3023F01F036B
:101DE000616A01390B43C2F88C30A6E73A4A13689E
:101DF00023F080531360FEF723FC0546364B1B6827
:101E000013F0005F06D0FEF71BFC401B6428F5D9D9
:101E10000320E7E6236813F4002F01D0E26B22B120
:101E200013F4801F1DD0236CDBB92B4AD2F8883005
:101E3000D2F88810606903F4403343EA8013A06944
:101E400043EA006301F0E0410B43C2F88830D2F866
:101E50008C3023F4F853A16A013943EA0123C2F814
:101E60008C30236813F4001F03D0E36FB3F1006FCD
:101E700038D0236813F0080F19D0174AD2F8881009
:101E8000D2F88830606903F4403343EA801301F0EC
:101E900070610B43E16943EA0173C2F88830D2F8FC
:101EA0008C3023F44033E16A0B43C2F88C300A4A89
:101EB000136843F080531360FEF7C2FB0446064BE1
:101EC0001B6813F0005F20D1FEF7BAFB001B6428EB
:101ED000F5D9032086E600BF0038024000700040BC
:101EE000FFFCFF0F0A4AD2F88800D2F88810656913
:101EF000236A1B0443EA851300F07060034301F07A
:101F0000E0410B43C2F88830B3E700206AE600BF27
:101F10000038024070470268D36843F00103D36081
:101F20000268136843F00103136000207047704794
:101F300070477047704710B5044603681A6912F07D
:101F4000020F11D0DA6812F0020F0DD06FF002020A
:101F50001A610123037703689B6913F0030F79D09B
:101F6000FFF7E6FF0023237723681A6912F0040FB6
:101F700012D0DA6812F0040F0ED06FF004021A616A
:101F80000223237723689B6913F4407F68D020469F
:101F9000FFF7CEFF0023237723681A6912F0080F9A
:101FA00012D0DA6812F0080F0ED06FF008021A6132
:101FB000042323772368DB6913F0030F57D02046EF
:101FC000FFF7B6FF0023237723681A6912F0100F7A
:101FD00012D0DA6812F0100F0ED06FF010021A61F2
:101FE000082323772368DB6913F4407F46D020461B
:101FF000FFF79EFF0023237723681A6912F0010F71
:1020000003D0DA6812F0010F3FD123681A6912F089
:10201000800F03D0DA6812F0800F3DD123681A696F
:1020200012F4807F03D0DA6812F0800F3BD123686E
:102030001A6912F0400F03D0DA6812F0400F39D15C
:1020400023681A6912F0200F03D0DA6812F0200F0B
:1020500037D110BDFFF76BFF2046FFF76AFF81E71E
:102060002046FFF764FF2046FFF763FF92E7204614
:10207000FFF75DFF2046FFF75CFFA3E72046FFF771
:1020800056FF2046FFF755FFB4E76FF001021A61D3
:1020900020460AF01DFAB8E76FF080021A61204668
:1020A00000F0D0F8BAE76FF080021A61204600F025
:1020B000C9F8BCE76FF040021A612046FFF73AFF0B
:1020C000BEE76FF020021A61204600F0BAF8C0E7C0
:1020D00070B40368474A904214BF00220122B0F155
:1020E000804F14BF144642F00104D4B9424DA842B7
:1020F00014BF00250125414EB04254D0002D52D1CD
:1021000005F1804505F58235A84214BF002501255B
:1021100006F50066B04202D00DB9002502E00125A7
:1021200000E001251DB123F070034D682B43002C06
:102130003DD1314CA04214BF002401242F4DA842B0
:1021400050D0002C4ED104F1804404F58234A042DA
:1021500014BF0024012405F50065A84244D0002CDA
:1021600042D1274CA04214BF0024012405F59A3522
:10217000A8423BD0002C39D1224CA04214BF0024ED
:10218000012405F50065A84232D0002C30D11E4C48
:10219000A04214BF00240124A5F59635A84204D01E
:1021A0001CB9002404E00125BCE7012400E001245F
:1021B0001CB123F44073CC68234323F080034C69A3
:1021C000234303608B68C3620B6883620F4B9842A2
:1021D00008BF42F001020AB10B69036301234361A6
:1021E00070BC70470124E3E70124E1E70124DFE745
:1021F0000124DDE700000140000800400004004029
:10220000004401400018004000200040000401404C
:10221000A8B110B5044690F83D305BB1022384F8B4
:102220003D30211D2068FFF753FF012384F83D3026
:10223000002010BD80F83C30FFF76CFEEEE7012077
:1022400070477047704790F86930DBB2212B01D09E
:1022500002207047B0F852309BB293B18368B3F557
:10226000805F1AD00268C36C591CC1641B789362EA
:10227000B0F852309BB2013B9BB2A0F85230002024
:1022800070470268136823F08003136002681368C4
:1022900043F040031360002070470369002BE1D135
:1022A000C36C02681B88C3F308039362C36C0233D8
:1022B000C364DDE70268136823F490731360026857
:1022C000936823F001039360202380F86A307047FD
:1022D00090F86930DBB2202B01D002207047002A31
:1022E00018BF002916D090F86830012B14D0C164B3
:1022F000A0F85020A0F852200023C366212280F8C5
:10230000692080F8683001680A6842F080020A603B
:102310001846704701207047022070472DE9F041B0
:1023200005460F4616469846069C2B68DB6937EA39
:1023300003030CBF01230023B3421ED1B4F1FF3FBE
:10234000F3D02CB1FEF77CF9A0EB08008442ECD866
:102350002A68136823F4D07313602A68936823F003
:1023600001039360202385F8693085F86A300023E3
:1023700085F868300320BDE8F0810020BDE8F081D9
:1023800008B501680B6823F040030B60202380F838
:1023900069300AF037FB002008BD704708B5B0F877
:1023A0005C2090F86A30DBB2222B06D00268936979
:1023B00043F008039361022008BD8368B3F5805F92
:1023C00011D0436D591C41650168496AD2B20A4077
:1023D0001A70B0F85A309BB2013B9BB2A0F85A3049
:1023E0006BB1002008BD0369002BEAD1436D016881
:1023F000496A0A401A80436D02334365E9E702687F
:10240000136823F4907313600268936823F0010348
:102410009360202380F86A30FFF7BFFF002008BDDB
:102420007047000038B504460268D36910689168A7
:1024300013F00F0505D113F0200F02D010F0200F7C
:102440005FD1002D73D011F0010102D110F4907F03
:102450006DD013F0010F07D010F4807F04D0012558
:102460001562E26E2A43E26613F0020F07D031B123
:10247000226802251562E26E42F00402E26613F061
:10248000040F07D031B1226804251562E26E42F0D4
:102490000202E26613F0080F09D010F0200F00D1FD
:1024A00029B1226808211162E26E0A43E266E26EF7
:1024B000002A48D013F0200F02D010F0200F24D1B2
:1024C000E36E13F0080F04D123689B6813F0400FEC
:1024D00027D02046FFF7EEFE23689A6812F0400FDF
:1024E0001BD09A6822F040029A60636E8BB11A4A40
:1024F0001A65606EFEF70CF928B3606E036D98479D
:1025000038BD2046FFF74AFF38BD2046FFF746FF9B
:10251000D6E72046FFF784FF38BD2046FFF780FF4F
:1025200038BD2046FFF77CFF0023E36638BD13F07B
:10253000800F02D010F0800F06D113F0400F02D0B0
:1025400010F0400F04D138BD2046FFF77CFE38BDA7
:102550002046FFF715FFF6E75D25000808B5806BFC
:102560000023A0F85A30A0F85230FFF759FF08BDF9
:1025700038B5044683680269134342691343C2694C
:10258000134301680868A04A024013430B602268A5
:10259000536823F44053E1680B435360A369226AF4
:1025A000134321688A6822F4306213438B602568E4
:1025B000964B9D422BD0964B9D423CD0954B9D42D5
:1025C00052D0954B9D4267D0944B9D427CD0944B0A
:1025D0009D4200F09480934B9D4200F0AB80924B63
:1025E0009D4200F0C2801023E269B2F5004F00F076
:1025F000DB80082B00F26881DFE813F031013C0139
:102600004701660151016601660166015C0103F53F
:102610009433D3F8903003F00303032B03D8DFE89F
:1026200003F0BF0604081023DEE70223DCE70423DF
:10263000DAE70823D8E703F5FA33D3F8903003F04C
:102640000C030C2B08D8DFE803F0AD0707070B07D6
:102650000707090707070D001023C5E70223C3E793
:102660000423C1E70823BFE703F5F833D3F890301C
:1026700003F03003102B0DD005D9202B08D0302BC0
:1026800004D10823B0E70BB90023ADE71023ABE773
:102690000223A9E70423A7E703F5F633D3F8903024
:1026A00003F0C003402B0DD005D9802B08D0C02BE0
:1026B00004D1082398E70BB9002395E7102393E78B
:1026C000022391E704238FE703F5F433D3F8903026
:1026D00003F44073B3F5807F0FD007D9B3F5007FC3
:1026E00009D0B3F5407F04D108237DE70BB900235F
:1026F0007AE7102378E7022376E7042374E703F5EB
:102700009233D3F8903003F44063B3F5806F0FD069
:1027100007D9B3F5006F09D0B3F5406F04D1082392
:1027200062E70BB901235FE710235DE702235BE754
:10273000042359E703F5E033D3F8903003F4405312
:10274000B3F5805F0FD007D9B3F5005F09D0B3F5BB
:10275000405F04D1082347E70BB9002344E7102367
:1027600042E7022340E704233EE703F5DE33D3F8D4
:10277000903003F44043B3F5804F0FD007D9B3F541
:10278000004F09D0B3F5404F04D108232CE70BB913
:10279000002329E7102327E7022325E7042323E763
:1027A000012321E700231FE7082B55D8DFE803F0BA
:1027B00005172254405454544B00FFF769F86268DF
:1027C000530803EB4003B3FBF2F39BB2002023F06A
:1027D0000F02C3F3420313432268D36038BDFFF7EF
:1027E00067F86268530803EB4003B3FBF2F39BB254
:1027F0000020ECE762680D4B03EB5203B3FBF2F3EE
:102800009BB20020E3E700BFF369FFEF0010014037
:102810000044004000480040004C00400050004090
:102820000014014000780040007C00400048E801AE
:10283000FEF70CFF6268530803EB4003B3FBF2F3AF
:102840009BB20020C3E76268530803F58033B3FBF3
:10285000F2F39BB20020BAE701200023B7E7FFF7AD
:1028600017F8636800EB5300B0FBF3F080B2E86048
:10287000002038BDFFF71CF8636800EB5300B0FB85
:10288000F3F080B2E860002038BD62680F4B03EBC4
:102890005203B3FBF2F39BB2EB60002038BDFEF7AE
:1028A000D5FE636800EB5300B0FBF3F080B2E86044
:1028B000002038BD6268530803F50043B3FBF2F310
:1028C0009BB2EB60002038BD012038BD0024F4002D
:1028D000436A13F0010F06D00268536823F40033F3
:1028E000816A0B435360436A13F0020F06D00268FB
:1028F000536823F48033C16A0B435360436A13F077
:10290000040F06D00268536823F48023016B0B4345
:102910005360436A13F0080F06D00268536823F42B
:102920000043416B0B435360436A13F0100F06D012
:102930000268936823F48053816B0B439360436A6E
:1029400013F0200F06D00268936823F40053C16B84
:102950000B439360436A13F0400F0AD00268536838
:1029600023F48013016C0B435360036CB3F5801F99
:102970000BD0436A13F0800F06D00268536823F42B
:102980000023816C0B43536070470268536823F443
:10299000C003416C0B435360EBE710B582B00446B3
:1029A0000023C366FDF74CFE2268126812F0080F80
:1029B00009D1202384F8693084F86A30002084F833
:1029C000680002B010BD6FF07E4300930346002202
:1029D0004FF400112046FFF7A1FC0028E9D00320A6
:1029E000EFE778B310B5044690F869300BB32423B1
:1029F00084F869302268136823F0010313602046CD
:102A0000FFF7B6FD01281FD0636ABBB9226853687F
:102A100023F4904353602268936823F02A03936061
:102A20002268136843F0010313602046FFF7B5FFE7
:102A300010BD80F8683009F077FDD8E72046FFF731
:102A400047FFE3E70120704710BD842801D0033021
:102A5000704700207047EFF30580003018BF012059
:102A6000704708B500F0F6FF002008BD08B5FFF775
:102A7000F2FF10B901F038F808BD01F03BF808BDCD
:102A8000F0B585B00F46446805680669B0F90800DE
:102A9000FFF7DBFF03AB019300903B46B2B2294640
:102AA000204600F033FF012802D1039805B0F0BDA5
:102AB0000020FBE708B5034600B90123184601F0E2
:102AC00033F9002008BD08B5012000F0A7FB08BDC0
:102AD00030B583B00023019360B30C460546B1F1D5
:102AE000FF3F0DD001B91C46FFF7B5FFB8B101AAF1
:102AF0000021284600F058FD012804D0FF2017E0EF
:102B00004FF0FF34F0E7019BB3B14FF080520C4B14
:102B10001A60BFF34F8FBFF36F8F002008E00023D0
:102B200022461946284600F061FC012806D0FF2005
:102B300003B030BD8020FBE70020F9E70020F7E775
:102B400004ED00E010B582B0044600230193FFF7C6
:102B500082FFA0B101A9204600F0E2FB012802D0CB
:102B6000FF2002B010BD019BABB14FF080520B4B68
:102B70001A60BFF34F8FBFF36F8F0020F1E7002380
:102B80001A461946204600F071FA012801D0FF20AC
:102B9000E7E70020E5E70020E3E700BF04ED00E001
:102BA00010B501290DD103220021012000F038FACF
:102BB000044620B100231A46194600F057FA204671
:102BC00010BD0024FBE7000030B583B00023019363
:102BD00060B30C460546B1F1FF3F0DD001B91C466C
:102BE000FFF739FFB8B101AA0021284600F0DCFC4C
:102BF000012804D0FF2017E04FF0FF34F0E7019BDD
:102C0000B3B14FF080520C4B1A60BFF34F8FBFF33C
:102C10006F8F002008E0002322461946284600F066
:102C2000E5FB012806D0FF2003B030BD8020FBE784
:102C30000020F9E70020F7E704ED00E010B582B0CE
:102C4000044600230193FFF706FFA0B101A9204627
:102C500000F066FB012802D0FF2002B010BD019BEE
:102C6000ABB14FF080520B4B1A60BFF34F8FBFF3E5
:102C70006F8F0020F1E700231A461946204600F026
:102C8000F5F9012801D0FF20E7E70020E5E7002063
:102C9000E3E700BF04ED00E008B5002241680068EA
:102CA00000F0BEF908BD000030B585B004460191C2
:102CB00000230393154602B90125FFF7CCFEA8B106
:102CC000002303AA01A9204600F0B3FA012801D08D
:102CD000FF2014E0039BA3B14FF080520B4B1A600E
:102CE000BFF34F8FBFF36F8F002008E000232A4609
:102CF00001A9204600F0BAF9012804D0FF2005B050
:102D000030BD0020FBE70020F9E700BF04ED00E044
:102D100070B584B00446029100230193F9B10D46C9
:102D2000164600230393B2F1FF3F21D002B91E469D
:102D3000FFF791FE10B303AA01A9284600F034FC66
:102D4000012818D000230093039B13B34FF0805247
:102D5000164B1A60BFF34F8FBFF36F8F19E004ABB0
:102D6000802243F8102D93E8070084E8070014E060
:102D70004FF0FF36DCE710230093E5E700233246EF
:102D800001A9284600F032FB012809D05EB90023D2
:102D900000939DE8070084E80700204604B070BD5A
:102DA00010230093F5E74023F2E700BF04ED00E0B5
:102DB00000F1080343604FF0FF328260C36003619B
:102DC00000230360704700230361704743684B6032
:102DD0009A688A609A685160996008610368013353
:102DE0000360704730B40D68B5F1FF3F02D000F1C9
:102DF000080202E0026904E01A4653681C68A54212
:102E0000FAD253684B6099608A6051600861036828
:102E10000133036030BC7047036942688168916088
:102E20008268416851605A68904205D00022026170
:102E3000186801381860704782685A60F6E710B564
:102E4000044601F01FFAA26BE36B9A4204D00024FF
:102E500001F03EFA204610BD0124F9E710B5044602
:102E600001F010FAA36B23B1002401F031FA2046DF
:102E700010BD0124F9E770B504461646856B026C57
:102E80004AB9036853BB406801F030F9002363601E
:102E90000135A56370BD6EB9806809F03CFE226CF7
:102EA000A3681344A3606268934219D32368A360A4
:102EB0000020EDE7C06809F02EFE236C5B42E2685B
:102EC0001A44E26021688A4202D262681344E360D5
:102ED000022E07D145B1013D0020D9E70020D7E7F8
:102EE0000020D5E70020D3E70020D1E7026C72B1C3
:102EF00010B50346C4681444C4604068844201D3DA
:102F00001868D8600846D96809F005FE10BD7047FA
:102F100038B5054601F0B6F995F8454064B201E0D0
:102F2000013C64B2002C0ADD6B6A43B105F1240058
:102F300000F0D0FF0028F3D001F070F8F0E7FF2395
:102F400085F8453001F0C4F901F09CF995F844404A
:102F500064B201E0013C64B2002C0ADD2B6943B18C
:102F600005F1100000F0B6FF0028F3D001F056F88C
:102F7000F0E7FF2385F8443001F0AAF938BD0000DE
:102F800038B530B304460D4601F07CF92168E26B98
:102F9000236C03FB021060600020A063A160013A73
:102FA00002FB0313E360FF2384F8443084F84530C8
:102FB000D5B9236903B304F1100000F08BFFD8B139
:102FC0004FF080520E4B1A60BFF34F8FBFF36F8FDD
:102FD00012E04FF0500372B683F31188BFF36F8F86
:102FE000BFF34F8F62B6FEE704F11000FFF7E0FE7B
:102FF00004F12400FFF7DCFE01F06AF9012038BD7E
:1030000004ED00E010B5029B0C4639B11A60D8639C
:103010001C6401211846FFF7B3FF10BD1B60F6E7E3
:1030200050B94FF0500372B683F31188BFF36F8F1E
:10303000BFF34F8F62B6FEE7F0B583B0054611B11E
:1030400001FB00F000E0002017460C46483001F07C
:103050009BFA064638B100903B4600F148022146F3
:103060002846FFF7CFFF304603B0F0BDF0B585B07E
:10307000019270B10446B9B10125DDB94FF050039A
:1030800072B683F31188BFF36F8FBFF34F8F62B6B1
:10309000FEE74FF0500372B683F31188BFF36F8FD2
:1030A000BFF34F8F62B6FEE7026C0AB90125E4E771
:1030B0000025E2E7022B0BD07DB94FF0500372B62A
:1030C00083F31188BFF36F8FBFF34F8F62B6FEE7B4
:1030D000E26B012AF0D00025EEE71E460F4600F015
:1030E000A3FF10B9019B03B1002555B94FF0500360
:1030F00072B683F31188BFF36F8FBFF34F8F62B641
:10310000FEE700252CE0324639462046FFF7B3FEA5
:10311000636A8BB104F1240000F0DCFE38B14FF09B
:103120008052374B1A60BFF34F8FBFF36F8F01F0A0
:10313000CFF8012005B0F0BD0028F8D04FF0805244
:103140002F4B1A60BFF34F8FBFF36F8FEFE701F084
:10315000BFF80020EEE72046FFF7DAFE00F064FD3E
:1031600001F090F8A26BE36B9A42CCD3022ECAD046
:10317000019B002BEBD01DB902A800F0F3FE012546
:1031800001F0A6F800F0A8FC01F07CF894F84430B7
:103190005BB2B3F1FF3F02D1002384F8443094F8CE
:1031A00045305BB2B3F1FF3F02D1002384F84530D4
:1031B00001F08EF801A902A800F0ECFEC8B9204683
:1031C000FFF73DFE0028C6D0019904F1100000F081
:1031D00067FE2046FFF79CFE00F026FD0028BFD1C9
:1031E0004FF08052064B1A60BFF34F8FBFF36F8FC3
:1031F000B6E72046FFF78CFE00F016FD002099E7A9
:1032000004ED00E048B108B5002141600160C160F3
:103210000B460A46FFF72AFF08BD704710B5024665
:1032200000210120FFF7FCFE0446FFF7EBFF2046DC
:1032300010BD2DE9F84370B10446B9B10120D8B9E9
:103240004FF0500372B683F31188BFF36F8FBFF353
:103250004F8F62B6FEE74FF0500372B683F31188CA
:10326000BFF36F8FBFF34F8F62B6FEE7006C08B9F4
:103270000120E4E70020E2E7022B0BD078B94FF001
:10328000500372B683F31188BFF36F8FBFF34F8F74
:1032900062B6FEE7E56B012DF0D00020EEE71F4699
:1032A0009046894601F0E0F8EFF311864FF05003A5
:1032B00072B683F31188BFF36F8FBFF34F8F62B67F
:1032C000A26BE36B9A4201D3022F21D194F84550AF
:1032D0006DB23A4649462046FFF7CDFDB5F1FF3FB6
:1032E00010D1636AB3B104F1240000F0F3FD98B18A
:1032F000B8F1000F12D00120C8F8000086F3118841
:10330000BDE8F8836B1C5BB284F845300120F5E71B
:103310000020F3E70120F1E70120EFE70120EDE7CE
:1033200070B170B50446036CABB14FF0500372B688
:1033300083F31188BFF36F8FBFF34F8F62B6FEE741
:103340004FF0500372B683F31188BFF36F8FBFF352
:103350004F8F62B6FEE7036863B1012383B94FF074
:10336000500372B683F31188BFF36F8FBFF34F8F93
:1033700062B6FEE743680BB90123EFE70023EDE7F0
:103380000E4601F071F8EFF311854FF0500372B65D
:1033900083F31188BFF36F8FBFF34F8F62B6A26BB9
:1033A000E36B9A421AD294F845305BB20132A263C1
:1033B000B3F1FF3F0CD1636A93B104F1240000F034
:1033C00089FD78B186B10120306085F3118870BD28
:1033D00001335BB284F845300120F6E70020F4E7C2
:1033E0000120F2E70120F0E70120EEE72DE9F041AE
:1033F00084B0019270B10446B9B10125DDB94FF036
:10340000500372B683F31188BFF36F8FBFF34F8FF2
:1034100062B6FEE74FF0500372B683F31188BFF334
:103420006F8FBFF34F8F62B6FEE7026C0AB90125BA
:10343000E4E70025E2E71F46884600F0F5FD10B9F5
:10344000019B03B1002555B94FF0500372B683F3C9
:103450001188BFF36F8FBFF34F8F62B6FEE7002670
:103460005DE0E66841462046FFF740FDDFB9013DDB
:10347000A563236813B900F097FE6060236963B108
:1034800004F1100000F026FD38B14FF08052454B9A
:103490001A60BFF34F8FBFF36F8F00F019FF012049
:1034A00004B0BDE8F081E660636A002BF5D004F15A
:1034B000240000F00FFD0028EFD04FF08052394B70
:1034C0001A60BFF34F8FBFF36F8FE6E700F000FF86
:1034D0000020E5E702A800F045FD012629E00023D1
:1034E00084F8443031E0002384F8453033E000F0C4
:1034F000C9FE606800F0A8FD00F0EAFE3BE020464F
:10350000FFF706FD00F090FB09E02046FFF700FD05
:1035100000F08AFB2046FFF7A1FC002840D100F014
:10352000B1FEA56B002D9CD1019B002BCED0002EAF
:10353000D0D000F0CDFE00F0CFFA00F0A3FE94F85A
:1035400044305BB2B3F1FF3FC9D094F845305BB271
:10355000B3F1FF3FC7D000F0BBFE01A902A800F005
:1035600019FD0028D1D12046FFF778FC0028C6D0ED
:103570002368002BBBD0019904F1240000F090FCDB
:103580002046FFF7C5FC00F04FFB0028C7D14FF0E5
:103590008052044B1A60BFF34F8FBFF36F8FBEE7AB
:1035A00000207DE704ED00E02DE9F84370B104460A
:1035B000B9B10123DBB94FF0500372B683F3118820
:1035C000BFF36F8FBFF34F8F62B6FEE74FF050032C
:1035D00072B683F31188BFF36F8FBFF34F8F62B65C
:1035E000FEE7036C0BB90123E4E70023E2E717468B
:1035F000894600F039FFEFF311864FF0500372B6A1
:1036000083F31188BFF36F8FBFF34F8F62B6D4F887
:103610003880B8F1000F20D094F844506DB249467C
:103620002046FFF763FC08F1FF33A363B5F1FF3FCA
:103630000DD123699BB104F1100000F04BFC80B167
:103640008FB10120386086F31188BDE8F8836B1CC8
:103650005BB284F844300120F5E70020F3E7012055
:10366000F1E70120EFE70120EDE750B94FF05003FB
:1036700072B683F31188BFF36F8FBFF34F8F62B6BB
:10368000FEE710B5044600F0FDFDA46B00F020FE3F
:10369000204610BD0A4B1B681B684BB901234BB970
:1036A000074B1B68DB68DB685A68064B1A6070477B
:1036B0000023F4E74FF0FF32024B1A60704700BF5F
:1036C0009C0000207401002010B50446006B00F03F
:1036D000E5FF204600F0E2FF10BD2DE9F0478046EF
:1036E0009946089D099F0A9C266B6FF0404313443E
:1036F00006EB830626F0070600230F2B07D8C85CCD
:10370000E21882F83400CA5C0AB10133F5E70023FD
:1037100084F84330062D00D90625E56265644FF034
:10372000000AC4F848A0201DFFF74DFB04F1180063
:10373000FFF749FB2461C5F10705A5616462C4F880
:103740004CA084F850A04A464146304600F072FD35
:10375000206007B13C60BDE8F087000038B5002468
:1037600007E004EB840293000E481844FFF720FBA7
:103770000134062CF5D90C4D2846FFF719FB0B4CEC
:103780002046FFF715FB0A48FFF712FB0948FFF731
:103790000FFB0948FFF70CFB084B1D60084B1C6032
:1037A00038BD00BFA4000020480100205C010020BB
:1037B0007C010020A8010020940100209C00002032
:1037C000A000002010B5044600F05CFD204A1368FC
:1037D000013313601F4B1B68002B31D01E4B1B683D
:1037E0003BB91C4B1B68DA6AE36A9A4201D8194B51
:1037F0001C601A4A136801331360E36A01229A407D
:103800001749086802430A6003EB83039A00211DED
:1038100014481044FFF7DAFA00F05AFD0E4B1B680B
:103820006BB10C4B1B68DA6AE36A9A4207D24FF01D
:1038300080520D4B1A60BFF34F8FBFF36F8F10BDD7
:10384000044B1C601368012BD3D1FFF787FFD0E72F
:10385000300100209800002090010020400100204D
:1038600044010020A400002004ED00E070B50446EF
:103870000E461F4B1D681F4B18680430FFF7CCFA2B
:1038800050B91C4B1B68DA6A012303FA02F21A4989
:103890000B6823EA02030B60B4F1FF3F14BF00235F
:1038A0000123002E08BF00239BB92C44114B1B6839
:1038B0005C60A54214D8114B18680E4B196804318E
:1038C000FFF790FA0E4B1B689C4201D20C4B1C6018
:1038D00070BD084B196804310A48FFF777FA70BDCC
:1038E000094B1868034B19680431FFF77BFA70BD68
:1038F000BC01002098000020440100209C00002012
:103900007401002094010020A00000202DE9F04364
:1039100085B006460F4615469846900000F034FEE6
:1039200000B38146542000F02FFE0446B0B1C0F829
:103930003090CCB10023039302940D9B01930C9B18
:10394000009343462A4639463046FFF7C6FE2046D6
:10395000FFF738FF012005B0BDE8F083484600F0CE
:103960009DFEE6E70024E4E74FF0FF30F3E70000B8
:1039700038B5044600F086FC002C34D0251D2846BE
:10398000FFF74AFA70B9E26A02EB82018B0027491D
:10399000CB583BB9012303FA02F225490B6823EA0D
:1039A00002030B60A36A1BB104F11800FFF734FA9D
:1039B000204A1368013313601F4B1B689C4215D0CB
:1039C0001E4A1368013B13602046FFF77DFEFFF798
:1039D00061FE00F07DFC1A4B1B681BB1164B1B6887
:1039E0009C420CD038BD144B1C68C7E729461548CB
:1039F000FFF7ECF9144A136801331360E9E7134B3E
:103A00001B6853B14FF0500372B683F31188BFF3B4
:103A10006F8FBFF34F8F62B6FEE74FF080520C4BB3
:103A20001A60BFF34F8FBFF36F8FDBE7A400002056
:103A300044010020400100209800002030010020B7
:103A400090010020A8010020340100203C0100204A
:103A500004ED00E000B583B0194B019300230093FF
:103A6000802218491848FFF751FF012805D0B0F10E
:103A7000FF3F19D003B05DF804FB4FF0500372B65E
:103A800083F31188BFF36F8FBFF34F8F62B64FF090
:103A9000FF320E4B1A6001220D4B1A6000220D4BB3
:103AA0001A6000F08DFCE5E74FF0500372B683F327
:103AB0001188BFF36F8FBFF34F8F62B6FEE700BF71
:103AC00070010020ACDD0008D93D00087401002021
:103AD00090010020BC010020024A136801331360EA
:103AE000704700BF3C010020014B1868704700BFC1
:103AF000BC01002008B500F0B7FC014B186808BDF8
:103B0000BC010020F8B53D4B1B68002B6AD13C4B33
:103B10001D6801351D60D5B93A4B1B681B6853B150
:103B20004FF0500372B683F31188BFF36F8FBFF36A
:103B30004F8F62B6FEE7334A1168334B1868106046
:103B40001960324A136801331360FFF7A3FD304B4D
:103B50001B689D423AD200242E4B1B68DB6A03EBA4
:103B600083039A002C4B9B58012B40D901243EE043
:103B70000124244B1B681B6853B3002353BB214B08
:103B80001B68DB68DE6873689D4228D3371D3846A2
:103B9000FFF742F9B36A1BB106F11800FFF73CF9D1
:103BA000F36A01229A401D49086802430A6003EB48
:103BB00083039A00394618481044FFF707F9F26A60
:103BC000144B1B68DB6A9A42D2D2D2E70024D0E7BA
:103BD0000123D3E74FF0FF320D4B1A60BCE70C4ACC
:103BE0001360B9E70E4A13680133136000240D4BCC
:103BF0001B6803B101242046F8BD00BF3C01002032
:103C0000BC0100209C000020A000002078010020C2
:103C10007401002098000020A4000020440100202E
:103C200038010020C001002038B5364B1B6853B95D
:103C30004FF0500372B683F31188BFF36F8FBFF359
:103C40004F8F62B6FEE700F01DFB2E4B1A68013A5B
:103C50001A601B68002B50D12B4B1B6823B9002422
:103C600000F036FB204638BD0024284B1B681BB3F0
:103C7000264BDB68DC6804F11800FFF7CDF8251D42
:103C80002846FFF7C9F8E36A01229A4020490868EC
:103C900002430A6003EB83039A0029461D4810443F
:103CA000FFF794F8E26A1C4B1B68DB6A9A42DCD38C
:103CB00001221A4B1A60D8E70CB1FFF7EBFC184B46
:103CC0001C6874B9154B1B68CBB14FF08052154B73
:103CD0001A60BFF34F8FBFF36F8F0124C0E7013C21
:103CE00007D0FFF70FFF0028F9D001220B4B1A6015
:103CF000F5E700220A4B1A60E4E70024B0E700244D
:103D0000AEE700BF3C010020300100207C01002014
:103D100044010020A400002098000020C0010020E1
:103D20003801002004ED00E010B5B8B10446114B95
:103D30001B6853B14FF0500372B683F31188BFF381
:103D40006F8FBFF34F8F62B6FEE7FFF7C5FE00210E
:103D50002046FFF78BFDFFF767FF00E0002038B932
:103D60004FF08052044B1A60BFF34F8FBFF36F8F39
:103D700010BD00BF3C01002004ED00E0134B1B68A8
:103D800013B310B5FFF7A8FE114B1C68FFF74CFFEB
:103D900024B90E4B1B68002BF4D110BD00F072FA51
:103DA0000B4BDB68DC68201DFFF736F8094A136807
:103DB000013B1360054A1368013B136000F088FA69
:103DC0002046FFF781FCE4E7704700BF3401002084
:103DD000A80100203001002008B5FFF7CFFF064BF7
:103DE0001B68012BF9D94FF08052044B1A60BFF3C6
:103DF0004F8FBFF36F8FF0E7A400002004ED00E0C9
:103E0000224B1B68D3B90022214B1A60214B1B683F
:103E1000B3FA83F3DBB2C3F11F0303EB83018A0020
:103E20001D498A5872B94FF0500372B683F3118856
:103E3000BFF36F8FBFF34F8F62B6FEE70122144BC3
:103E40001A60704710B414489A00D418A1000144B5
:103E50004C6864684C601A449100083108448442FC
:103E60000BD003EB83039A000B4B13445B68DA68B7
:103E70000A4B1A605DF8044B7047606803EB8302DD
:103E80009100054A0A445060EBE700BF3C01002066
:103E9000C001002044010020A40000209800002060
:103EA00050B94FF0500372B683F31188BFF36F8F90
:103EB000BFF34F8F62B6FEE710B50C46044B19688E
:103EC0001831FEF78FFF01212046FFF7CFFC10BD10
:103ED0009800002038B5C368DC6824B304F11805E5
:103EE0002846FEF799FF194B1B683BBB251D28464A
:103EF000FEF792FFE36A01229A40154908680243DF
:103F00000A6003EB83039A00294612481044FEF727
:103F10005DFFE26A104B1B68DB6A9A4213D90120ED
:103F20000E4B186038BD4FF0500372B683F3118802
:103F3000BFF36F8FBFF34F8F62B6FEE72946084885
:103F4000FEF744FFE5E7002038BD00BF3C0100203C
:103F500044010020A400002098000020C00100209F
:103F60007C01002030B1094A12680260084A1268D8
:103F7000426070474FF0500372B683F31188BFF36D
:103F80006F8FBFF34F8F62B6FEE700BF780100204E
:103F9000BC01002038B5C0B1044609B30D4600F09D
:103FA00071F91C4B19682B68B3F1FF3F2ED02068C4
:103FB000194A1268904202D06268914228D262681F
:103FC000881A834217D801241CE04FF0500372B6C0
:103FD00083F31188BFF36F8FBFF34F8F62B6FEE795
:103FE0004FF0500372B683F31188BFF36F8FBFF3A6
:103FF0004F8F62B6FEE7521A13442B602046FFF73C
:10400000B1FF002400F064F9204638BD0024F9E730
:104010000124F7E7BC010020780100200122014BB8
:104020001A607047C0010020054B1B6823B1054B87
:104030001B681BB9022070470120704700207047A1
:10404000900100203C010020002847D038B50446EC
:10405000C36A23490968C96A8B4216D2816900295B
:1040600005DB1F490968C96AC1F1070181616069FF
:1040700003EB830399001B4B0B44984206D00023AB
:1040800033B9174B1B68DB6AE36238BD0123F7E7DE
:10409000251D2846FEF7C0FE68B9E36A03EB8301DD
:1040A0008A0010498A5832B901229A400E490B6899
:1040B00023EA02030B600A4B1B68DB6AE3620122FE
:1040C0009A400949086802430A6003EB83039A0097
:1040D000294604481044FEF779FE38BD704700BFFA
:1040E00098000020A40000204401002000284ED0A9
:1040F00038B50446294A126890420AD04FF050035E
:1041000072B683F31188BFF36F8FBFF34F8F62B620
:10411000FEE7826C52B94FF0500372B683F31188F8
:10412000BFF36F8FBFF34F8F62B6FEE7013A826431
:10413000C06A616C88422CD06ABB251D2846FEF7F8
:104140006BFE70B9E26A02EB82018B001449CB5816
:104150003BB9012303FA02F212490B6823EA020376
:104160000B60636CE362C3F10702A261012404FAED
:1041700003F20C49086802430A6003EB83039A00C8
:10418000294607481044FEF721FE204638BD00208E
:104190007047002038BD002038BD00BF98000020C7
:1041A000A400002044010020054B1B6823B1044BF0
:1041B0001A68936C01339364014B1868704700BF11
:1041C000980000200D4B1B68B3F1FF3F0AD04FF061
:1041D000500372B683F31188BFF36F8FBFF34F8F15
:1041E00062B6FEE74FF0500372B683F31188BFF357
:1041F0006F8FBFF34F8F62B6FEE700BF0400002051
:1042000006480068006880F3088862B661B6BFF3AC
:104210004F8FBFF36F8F00DF00BF000008ED00E09D
:10422000DFF80C00016841F4700101607047000084
:1042300088ED00E04FF0807340F8043C21F001016C
:1042400040F8081C054B40F80C3C40F8202C6FF05F
:10425000020340F8243C4438704700BFC5410008C1
:10426000074B19680868B0E8F04F80F30988BFF37E
:104270006F8F4FF0000080F311887047AFF300801C
:10428000980000204FF0500372B683F31188BFF3FB
:104290006F8FBFF34F8F62B60B4A13680133136001
:1042A000012B0FD1094B1B6813F0FF0F0AD04FF001
:1042B000500372B683F31188BFF36F8FBFF34F8F34
:1042C00062B6FEE7704700BF0400002004ED00E086
:1042D0000A4B1B6853B94FF0500372B683F3118831
:1042E000BFF36F8FBFF34F8F62B6FEE7013B034A08
:1042F00013600BB983F31188704700BF04000020DE
:10430000EFF30980BFF36F8F154B1A681EF0100F83
:1043100008BF20ED108A20E9F04F10604DF8043DF1
:104320004FF0500072B680F31188BFF34F8FBFF388
:104330006F8F62B6FFF764FD4FF0000080F31188C5
:1043400008BC19680868B0E8F04F1EF0100F08BFED
:10435000B0EC108A80F30988BFF36F8F704700BFFD
:104360009800002008B54FF0500372B683F311880F
:10437000BFF36F8FBFF34F8F62B6FFF7C3FB18B168
:104380004FF08052024B1A60002383F3118808BD5E
:1043900004ED00E0064B1B68064AA2FB03239B09C1
:1043A000013B054A13600722044B1A60704700BFA7
:1043B00010000020D34D621014E000E010E000E097
:1043C00000B583B0224B1A78D2B20192FF221A7044
:1043D0001B78DBB28DF803309DF8033003F05003F7
:1043E0001C4A137007221C4B1A6009E01A4A136812
:1043F000013B13609DF803305B00DBB28DF80330A6
:104400009DF8033013F0800FF0D1134A13681B029C
:1044100003F4E0631360019BDBB20D4A13700F4B92
:104420001A6842F470021A601A6842F070421A6008
:10443000FFF7B0FF00220A4B1A60FFF7F1FE094AAE
:10444000136843F040431360FFF7DAFEFFF7BAFE4C
:1044500000E400E0C4010020C801002020ED00E0DD
:104460000400002034EF00E0EFF305830F2B11D997
:10447000124A9B5CDBB2124A127893420AD24FF086
:10448000500372B683F31188BFF36F8FBFF34F8F62
:1044900062B6FEE70B4B1B6803F4E0630A4A12683E
:1044A00093420AD94FF0500372B683F31188BFF3D9
:1044B0006F8FBFF34F8F62B6FEE77047F0E300E007
:1044C000C40100200CED00E0C8010020124A12F0E7
:1044D000070F1ED0D11D21F00701C1F57053134401
:1044E0000A460E480260002141601344083B23F055
:1044F00007030B48036059601960991A51601360F3
:10450000084B1960084B19604FF00042074B1A60C6
:1045100070474FF47053E4E7D0010020DC3D0020E9
:10452000CC010020D83D0020D43D0020D03D00200B
:1045300010B4134B1A6882421BD359685C18A0420E
:1045400003D1406801445960184641684418A242AA
:1045500013D10C4C2468A2420DD052681144416022
:104560001A6812680260984200D018605DF8044B27
:1045700070471346DEE70460F5E70260F3E700BF2B
:10458000DC3D0020CC01002070B50446FFF7A4FA02
:104590003D4B1B68CBB13D4B1B681C4269D1BCB184
:1045A000083414F0070F13D024F00704083404F083
:1045B00007036BB14FF0500372B683F31188BFF35A
:1045C0006F8FBFF34F8F62B6FEE7FFF77FFFE2E723
:1045D000002C50D02E4B1B689C424ED82D4B1D6892
:1045E00001E02B4615466A68944202D92A68002ADF
:1045F000F7D1254A1268954241D01E6808362A68CC
:104600001A606B681B1B102B12D9281910F0070FAA
:104610000AD04FF0500372B683F31188BFF36F8F47
:10462000BFF34F8F62B6FEE743606C60FFF780FF19
:104630006A6817490B689B1A0B60174909688B4217
:1046400001D215490B60114B1B6813436B600023AB
:104650002B60FFF7E9FA16F0070F12D04FF0500366
:1046600072B683F31188BFF36F8FBFF34F8F62B6BB
:10467000FEE70026EDE70026EBE70026E9E7002647
:10468000E7E7304670BD00BFCC010020D03D0020E0
:10469000D43D0020DC3D0020D83D0020002834D04F
:1046A00038B50446A0F1080550F8042C17490968EC
:1046B0000A420AD14FF0500372B683F31188BFF358
:1046C0006F8FBFF34F8F62B6FEE750F8080C50B102
:1046D0004FF0500372B683F31188BFF36F8FBFF3AF
:1046E0004F8F62B6FEE722EA010244F8042CFFF77E
:1046F000F3F954F8041C064A13680B441360284667
:10470000FFF716FFFFF790FA38BD7047D03D002045
:10471000D43D002000B583B0204B1B6813B1204A64
:10472000106898471F4807F0A6FA0EE01E4B692252
:104730001E491F4808F002FA07E0DA6899685868CD
:1047400090470199092000F0E1FB164C204607F044
:1047500099FA01A9174804F033F9204607F08BFABB
:10476000019B002BE2D01A78032A0AD0042A10D029
:10477000022AE2D00C4B9B220C490D4808F0DEF9CE
:10478000E3E75A68986890470199082000F0BEFB5B
:10479000DBE75A6898689047D7E700BFE83D0020FC
:1047A000EC3D00209C3F00201CDE00084CDE000891
:1047B0006CDE0008E43D0020F8B507460E461546BD
:1047C000134807F035FA88B1092000F085FB04464C
:1047D000D0B10223037047608660C56001460C4873
:1047E00007F0F0F9034640B91846F8BD094BB52269
:1047F00009490A4808F0A2F9E6E72146092000F035
:1048000085FB4FF0FF33EFE74FF0FF33ECE700BFDE
:10481000E43D00201CDE00080CDE00086CDE000811
:1048200008B591F82F3013F0180F03D1034AFFF7A2
:10483000C3FF08BD024AFFF7BFFF08BD35AF000840
:1048400071BA0008F8B507460E461546164807F037
:10485000EFF988B1082000F03FFB044600B30323C2
:1048600003704760866075B901460F4807F0AAF9E2
:10487000034670B91846F8BD0C4BEE220C490D48A2
:1048800008F05CF9E6E70146074807F08FF90023D6
:10489000F0E72146082000F039FB4FF0FF33E9E74D
:1048A0004FF0FF33E6E700BFE43D00201CDE0008C8
:1048B0000CDE00086CDE000830B583B005460C46FF
:1048C00000F04BF8134B1D60134B1C60062113487E
:1048D00007F05AF970B9124807F0BCF990B90323F0
:1048E00000934FF4806300220E490F4807F0CFF980
:1048F00003B030BD0D4B40F2D5120D490D4808F004
:104900001DF9E8E7094B40F2D9120B49094808F0B4
:1049100015F9E4E7E83D0020EC3D0020E43D0020EF
:104920009C3F002015470008FCDD00081CDE000845
:10493000B4DD00086CDE0008D8DD000840BA80B2A3
:104940007047030203F47F0343EA0063020A02F4A0
:104950007F42134343EA1060704708B507F06EF9D1
:1049600000F07CF800F0A8FA00F0FBFA04F096F8EA
:1049700001F02EF803F0FEFF08BD000010B504465C
:104980002D4B1B68834231D82C4B1B689C4235D27F
:104990002379002B3AD12388B3F5C86F3ED8264B34
:1049A0001B6821885A1894420FD0107968B923489F
:1049B0000068824209D022480068824236D05A5AA2
:1049C00022805A5A1A44E11A518061885A18944236
:1049D0000BD0107948B91A480068844229D0208841
:1049E000585221881944D31A4B8010BD154B40F200
:1049F0005D121549154808F0A1F8C5E7114B4FF4B1
:104A0000AF721349114808F099F8C1E70D4B40F215
:104A10005F1210490D4808F091F8BCE7094B4FF4BC
:104A2000B1720D49094808F089F8B8E7044A1460E2
:104A3000C5E703480260D2E7F83D0020FC3D0020B6
:104A4000F03D0020D8DF000808E000086CDE000818
:104A500020E000083CE0000858E0000808B5114BD1
:104A600023F00303104A13604FF4C8611980002239
:104A70005A801A715A180D48026001201071A3F86B
:104A8000401651800A4A13600A4807F0E3F800B95B
:104A900008BD094B4FF4CC720849094808F04EF89C
:104AA000F6E700BFBB3F0020F83D0020FC3D0020A2
:104AB000F03D0020F43D0020D8DF0008E4DE0008CF
:104AC0006CDE0008002848D038B5044610F0030F0B
:104AD0001BD1224B1B689C4203D3214B1B689C4279
:104AE00006D3204B40F2AF121F49204808F026F8A9
:104AF0001A4B1B689C4203D3194B1B689C420CD376
:104B000007F0D8F807F0E2F838BD164B4FF4D6722C
:104B10001749164808F012F8DBE7164807F0ABF81B
:104B2000A4F1080514F8043C7BB1002304F8043C0C
:104B3000114B1B689D4201D20F4B1D602846FFF7A9
:104B40001DFF0C4807F09EF838BD064B4FF4E0728D
:104B50000A49064807F0F2FFE7E77047F83D0020F2
:104B6000FC3D0020D8DF0008B8DE00086CDE00083D
:104B700094DE0008F43D0020F03D0020D0DE000867
:104B8000F8B50546CC1CA4B224F00304A4B20B2C47
:104B900000D80C24B4F5C86F79D83F4B1B68AB42E2
:104BA00003D83E4B1B689D4206D33D4B4FF4FA722F
:104BB0003C493D4807F0C2FF374B1B689D4236D346
:104BC000364A1268954232D2A5F10807FF1ABFB2E1
:104BD00035F8086CF61BB6B2083EB6B2B4422CD813
:104BE000B44256D827D0314807F045F82A4B1A6806
:104BF00035F8083CD118087958BBD05AE3199BB254
:104C000008339BB22A4C2468A1421ED0D11800243C
:104C10000C71D0524F8025F8083CD15AB1F5C86FBD
:104C200001D00A445380214807F02CF803E007F034
:104C300041F807F04BF82846F8BD194B40F2062220
:104C40001C49194807F07AFFCAE7D118184C2160AF
:104C5000DCE704F11403B342E5D8E3199BB208334F
:104C60009BB2D11812480068814201D210480160FD
:104C70000020087135F8080CD0524F8025F8083C08
:104C8000D15AB1F5C86FCED00A445380CBE7002586
:104C9000D1E70025CFE700BFF83D0020FC3D002014
:104CA000D8DF0008A0DF00086CDE0008F43D00201B
:104CB000F03D0020B8DF0008002800F08E80F8B535
:104CC00005460335ADB225F00305ADB20B2D00D876
:104CD0000C25B5F5C86F00F28280424806F0CBFF84
:104CE000414B1868414B1B681B1A9BB249E00123DA
:104CF00023713E4B1B689C4214D03A4806F0C2FF19
:104D0000264408363A4B1B689E4221D814F003050E
:104D100026D1002D2CD104F10800F8BD324A1268CA
:104D20001B8813441A791AB1314909688B42F5D1AD
:104D30002E490B602E4909688B42DED0002ADCD058
:104D40002C4B40F2CF222C492C4807F0F7FED4E739
:104D5000284B4FF435722A49284807F0EFFED5E773
:104D6000244B40F2D6222749244807F0E7FED0E73B
:104D7000204B4FF436722449204807F0DFFECAE783
:104D800023881F462E46C5F5C8618B4220D2C41821
:104D900021790029F4D1C25AD21B083A9642EFD8A1
:104DA00006F114018A42A2D3EA1892B2083292B2F2
:104DB000811800250D71258885524B8022800123A2
:104DC0002371835AB3F5C86F93D01844428090E79B
:104DD000044806F057FF0020F8BD0020704700206F
:104DE000F8BD00BFF43D0020F83D0020F03D00205C
:104DF000FC3D0020D8DF000800DF00086CDE000862
:104E00001CDF00084CDF00087CDF000838B50446D2
:104E100006F050FF0546A3681C688CB122681A6032
:104E200014F0030F04D1284606F050FF204638BD89
:104E3000054B40F249120549054807F07FFEF2E7AD
:104E400006F044FF002038BDA4E00008D4E00008CC
:104E50006CDE000838B505460C4611F0030F09D189
:104E600006F028FFAB681B682360AB681C6006F087
:104E70002DFF38BD034B40F29D120349034807F054
:104E80005DFEEDE7A4E0000884E000086CDE0008A9
:104E9000836800221A604368033323F0030307E0AA
:104EA00081680968196081680B6001880B440132D0
:104EB00041888A42F4DB704710B5002406E0054BB8
:104EC00053F82400FFF7E4FF0134A4B20C2CF6D908
:104ED00010BD00BFD0E1000808B50C2805D8074B6D
:104EE00053F82000FFF792FF08BD054B40F28712F0
:104EF0000449054807F022FE002008BDD0E1000863
:104F0000A4E00008B0E100086CDE000808B50C2839
:104F100006D821B1064B53F82000FFF79BFF08BDD0
:104F2000044B40F2DB120449044807F007FE08BDB9
:104F3000D0E10008A4E0000894E100086CDE00085D
:104F400011F0010F0CD008B5436823B190F82F3051
:104F500013F0080F00D108BD011D05F05BFCFAE756
:104F60007047704770B582B00D46C1B10A680192B2
:104F700042680199914210D00446061D01A93046AD
:104F800001F00CFB01A9304603F056FF5DB12B6820
:104F9000636001212046FFF7D3FF02B070BD034AD2
:104FA00012680192E4E70023F2E700BF6CF7000803
:104FB00011B10B68C36070470023FBE711B10B68A8
:104FC000836070470023FBE7F8B5044617461E468A
:104FD0000D4609B10B6863B929462046FFF7C2FFA9
:104FE00039462046FFF7EAFF31462046FFF7E0FF4B
:104FF000F8BD1146FFF7E2FF31462046FFF7D8FF24
:1050000029462046FFF7AEFFF8BD00002DE9F0412C
:1050100004460E4617469846079D1DB3002363605D
:10502000A360E36084F82F302362032384F82430E4
:10503000069BE361104A1378591C117084F83230D2
:10504000089B236143463A4631462046FFF7BCFFA2
:105050002046A84768B9094B1A6822601C602046A0
:10506000BDE8F081064BFB220649074807F066FDC4
:10507000D4E70020BDE8F081343E0020C076002057
:1050800004E2000838E200086CDE0008014B1860FA
:10509000704700BFC476002008B590F82F3013F099
:1050A000010F06D143F0010380F82F3013F0040FF5
:1050B00000D108BD0321FFF743FFFAE708B590F8D8
:1050C0002F3013F0010F06D003F0FE0380F82F30CD
:1050D00013F0080F00D108BD05F01EFBFBE7000030
:1050E00070B50C4616460546D8B1002D18BF002CE9
:1050F0004DD0002C1DDBA2B22B7B6968032B18BF9F
:10510000002B28D10B1B6B6005F1100293421FD3BB
:10511000A4B26B8923446B812B891C442C81002011
:1051200070BD1D4B40F23F221C491D4807F006FD93
:10513000DBE7A2B2524292B26B899A42DCD9164B9B
:1051400040F247221749164807F0F8FC012070BDCD
:105150006960012070BD013B9BB2012B0ED8002C71
:1051600006DB002E18BF002C13DD091B6960CFE79A
:105170006B899A42F5D8091B6960C9E7064B40F272
:1051800077220949064807F0D9FC012070BD0020AC
:1051900070BD012070BD00BF08E50008ECEF0008FD
:1051A0006CDE000838E5000858E5000810B506F088
:1051B00081FD0C4B1C78E4B201221A7006F086FDCA
:1051C00004B110BD002211460748FFF73BFB002841
:1051D000F7D006F06FFD0022024B1A7006F076FD44
:1051E000EFE700BFC87600202152000810B506F096
:1051F00061FD0022084B1A7006F068FD074B1C6821
:1052000044B1206F08B9E468FAE700F062FC0023BB
:10521000236710BD10BD00BFC8760020D0760020E7
:1052200008B5FFF7E3FF08BD70B5049C04280AD851
:10523000DFE800F01214030507000E200FE0002045
:105240000DE000200BE0134B40F2C5121249134849
:1052500007F074FC002070BD362000E022200330EF
:1052600020F003000E18BDF81450AE4210D80025EF
:105270001D6054B12044586002205873198159812F
:105280001A730122DA81184670BD00205860F3E7D6
:10529000002070BD08E5000834E300086CDE00085B
:1052A00008B50022FFF71CFF08BD08B50122FFF773
:1052B00017FF08BDF8B528B10446037B032B0BD8B4
:1052C00000261FE02B4B40F2D2222B492B4807F03F
:1052D00035FC00263046F8BD264B40F2DE22284938
:1052E000264807F02BFCEBE7224B40F2EB22254946
:1052F000224807F023FC0DE0236920469847013639
:10530000F6B22C46002CE5D006F0D4FC0746E38923
:10531000002BE9D0E589013DADB2E581384606F0C4
:10532000D5FC25BB2568237B627B12F0020F0AD0D7
:105330002369002BE0D10F4B40F2F92212490F48AC
:1053400007F0FCFBD8E7032B07D0013B9BB2012BF6
:1053500008D92046FFF7B6FBD1E721460C20FFF71E
:10536000D5FDCCE721460B20FFF7D0FDC7E7002491
:10537000C8E700BF08E50008ECEF00086CDE000895
:10538000B4E40008CCE40008E4E400082DE9F843A4
:105390000D46174604280AD8DFE800F0121403056A
:1053A00007000E240FE000240DE000240BE0644B06
:1053B0004FF48B726349644807F0C0FB0026B1E0EC
:1053C000362400E02224032F00F2AF80DFE807F04C
:1053D0007B9B9B020C20FFF77FFD0646F8B107730D
:1053E0000023036004F110030344033323F0030399
:1053F00043600581E21C22F00302C2F51472AA4246
:1054000028BF2A4692B24281134400F518784345DA
:1054100008D80123F3817389ED1AB14626E0FFF71E
:10542000C5FE7FE0464B4FF498724849464807F066
:1054300085FBEEE7FFF7BAFE3046FFF73BFF264657
:1054400070E03F4B4FF4A67241493F4807F076FBAE
:105450001EE03B4B4FF4A9723E493B4807F06EFB00
:1054600024E00123E3816389ED1AA146002D55DD77
:105470000C20FFF731FD04460028DBD00773002322
:1054800043730360C9F800004FF6FE739D42D8DCF9
:10549000ABB22381B3F5147F28BF4FF4147363813B
:1054A00004F11003636013F0030FD2D173687289A3
:1054B00013449845D5D2224B40F255122349224835
:1054C00007F03CFBCDE704F1130020F0030083B2AA
:1054D000EA1C90B220F00300184480B222F00302CC
:1054E00090422BD3FFF7E8FB0646D8B104F1100336
:1054F0000344033323F00303436005814581002304
:10550000036007730AE00B20FFF7E6FC064648B18C
:105510000023436005814581036007730123F38104
:10552000002373733046BDE8F883054B4FF4C67211
:105530000949054807F002FB0026F3E70026F1E7DA
:1055400008E5000850E200086CDE00086CE2000884
:10555000D4E20008E8E2000818E3000870B50D4640
:10556000044698B1237B032B18BF012B09D043B10C
:10557000022B06D02B4B40F2F7122B492B4807F099
:10558000DDFA2689AE4238D9AE1B0DE0254B40F23C
:10559000F3122749254807F0D1FAE3E7238913FAE4
:1055A00086F32381246884B161898D4215D9691AF3
:1055B0008DB24FF6FE739E42F0DD1A4B40F20B2285
:1055C0001C491A4807F0BAFAE8E7164B40F20F22D6
:1055D0001949164807F0B2FAE6E7237B2BB98D424A
:1055E00003D0637B13F0020F08D06581258120680A
:1055F00008B1FFF75FFE0023236070BD63681B1BCB
:1056000015FA83F189B22046FFF7BAFA044600285A
:10561000EBD1044B40F21D220849044807F08EFAF2
:10562000E3E700BF08E5000880E500086CDE00083D
:1056300068E500089CE50008B0E50008C8E500083A
:10564000002302E001339BB200680028FAD118461B
:105650007047000098B110B5044606F02BFBE389B3
:105660000133E38106F032FBE38903B110BD044B43
:1056700040F239320349044807F060FAF6E7704710
:1056800008E50008E4E500086CDE000838B50446CB
:105690000D46002918BF00280CD1154B40F24D32A1
:1056A0001449154807F04AFA38BD2B8921890B4463
:1056B000238114462268002AF7D1228963899A42FD
:1056C00006D00B4B40F255320C490B4807F036FA26
:1056D000236833B1064B40F256320949064807F0B9
:1056E0002DFA2B89228913442381256038BD00BF00
:1056F00008E5000858E300086CDE000890E30008A5
:10570000C0E3000810B50C46FFF7C0FF2046FFF7C6
:10571000A1FF10BD2DE9F041002918BF002809D0D4
:1057200007460D4602890B899A4203D34FF00008C1
:1057300046462CE0404B40F2BD324049404807F01D
:10574000FDF96FF00F00BDE8F0819B1B9CB226E0D5
:10575000394B40F2CD323B49394807F0EFF92DE0A3
:10576000354B40F2CE323849354807F0E7F928E0AA
:105770007B899E422CD01DB16A892B899A423CD0EC
:105780001FB17A893B899A4245D0002D51D07B893F
:10579000991B6C89A4EB08029142D6DB94B278681D
:1057A000696822464144304407F0B5F92644B6B250
:1057B00044441FFA84F87B899E42C9D86B89984576
:1057C000CED86B899845D3D32D684FF00008CFE72A
:1057D0003F68B7FA87F35B09002D08BF00230BB9B8
:1057E0000026C8E7144B4FF476721849144807F0A6
:1057F000A5F96FF00F00BDE8F0812B68002BBFD03A
:105800000D4B40F2DE3212490D4807F097F96FF068
:105810000500BDE8F0813B68002BB6D0064B40F296
:10582000E3320B49064807F089F96FF00500BDE83F
:10583000F0810020BDE8F08108E50008D0E3000811
:105840006CDE000800E4000818E4000834E40008F6
:1058500044E400082DE9F04128B10F469046054682
:1058600061B1002627E01A4B40F2FE3219491A486E
:1058700007F064F900263046BDE8F081144B40F291
:10588000FF321649144807F059F90026F3E76A89F0
:10589000D21A94B2A04500D24446696822461944FF
:1058A000B81907F038F92644B6B2A8EB04041FFA79
:1058B00084F800232D68B8F1000F18BF002DDAD04E
:1058C000002BE4D069898B42E1D35B1A9BB2F1E7EC
:1058D00008E5000870E400086CDE000890E40008A9
:1058E00000E0C06828B1836F8B42FAD10023836740
:1058F000F7E7704738B5054650B12B7D012B05D031
:105900000C4BC1220C490D4807F018F901240EE098
:10591000084BC0220A49094807F010F9EDE7094B86
:1059200053F8243029461868FFF7DAFF0134032CB6
:10593000F5D938BD68E60008A4E600086CDE00086A
:1059400098E60008BCE6000838B5044640B1237D5F
:10595000042B1AD0072B21D0032B09D0002512E0ED
:10596000184B40F24D121849184807F0E7F8EEE7D7
:10597000204602F0FDFB054608B905232375B5B1A5
:10598000B5F1FF3F17D0284638BD204602F0F0FBA6
:1059900005460028F3D105232375F0E7204602F0E1
:1059A000E7FB05460028EAD109232375E7E72046EF
:1059B00002F03AFCE7E7A37E43F00803A376002554
:1059C000E1E700BF68E6000898E600086CDE000822
:1059D0007047000038B5456A048D2A19C16A438EA4
:1059E000B3F5866F01D94FF486630B44D31A002BAD
:1059F00002DB4485501A38BD6B1A002B03DD0022F0
:105A00004285104638BD04464D1BB5F5803F02D295
:105A10006585002038BD044B4FF4427203490448A9
:105A200007F08CF8F4E700BF68E60008CCE800084F
:105A30006CDE000838B505460C46037D012B10D0FE
:105A4000298D214489B22985B1F5066F11D94FF40A
:105A500006632B852846FFF7BDFFB0F5067F1BDAEE
:105A600038BD114B4FF448721049114807F066F8E1
:105A7000E6E70029EED12B7D092B18BF072B03D1B8
:105A80004FF406632B85E5E7074B40F22D320949B9
:105A9000074807F053F8DDE7AB7E43F00203AB762F
:105AA000284602F0C1FBDBE768E6000820E70008B3
:105AB0006CDE000848E7000850B110B504464068A5
:105AC00008B1FFF7F7FB21460320FFF71FFA10BDCF
:105AD000704738B110B50468FFF7EEFF2046002C80
